:020000000504F5
:020000021000EC
:10F800000F92CDB7DEB7112484B714BE81FFB4D3F5
:10F8100085E08093810082E08093C00088E180933E
:10F82000C10086E08093C20080E18093C4008EE036
:10F830008DD3219A26E080E39CEF31E09093850000
:10F840008093840036BBB09BFECF199AA8952150B7
:10F85000A9F7F2D188249924DD24D394E1E1EE2E96
:10F8600073E0F72E67D3813471F464D3898374D342
:10F870008981823809F48CC0813811F484E001C098
:10F8800083E051D38CC0823411F484E103C0853409
:10F8900019F485E069D383C0853591F44BD3082FE3
:10F8A00010E048D390E0382F2227202B312B832FD4
:10F8B000881F8827881F8BBF4901880C991C6EC040
:10F8C000863521F484E050D380E0DBCF843609F024
:10F8D00041C030D32FD3C82E2DD380E0881680EEC0
:10F8E000980618F4F401F7BEE89500E011E022D381
:10F8F000F80181938F01CE16D1F7F0E08F16F0EE6C
:10F900009F0618F0F401F7BEE89526D307B600FC71
:10F91000FDCFF401A0E0B1E02C9130E011968C9184
:10F92000119790E0982F8827822B932B12960C0129
:10F93000D7BEE8951124329682E0A030B80761F76F
:10F9400085E0F40187BFE89507B600FCFDCFE7BE70
:10F95000E89525C08437A9F4EDD2ECD2B82EEAD2CE
:10F96000FBD2CB2C8401F8018691DDD20F5F1F4FB3
:10F97000CA94C9F70894811C911CBA948B0C911CF1
:10F980000EC0853739F4E8D28EE1CDD287E9CBD2EB
:10F9900085E077CF813511F488E0D8D2DDD280E1DF
:10F9A000C2D260CFFF920F931F93CF93DF93F99949
:10F9B000FECF60911B0170911C01CB01A0E0B0E073
:10F9C00023E0FC01A0935B0020935700E89507B665
:10F9D00000FCFDCFCDE1D1E0FF24F3940991199112
:10F9E0009B0140E050E00801F90140935B00F09278
:10F9F0005700E89511246E5F7F4F22E0CD31D2078A
:10FA000069F725E0FC01A0935B0020935700E8957F
:10FA100007B600FCFDCF81E180935700E895DF91A8
:10FA2000CF911F910F91FF9008958EBD0DB407FEE9
:10FA3000FDCF08951F93CF93DF938FEFF6DF2B98C1
:10FA4000CBE0D1E08991F1DF81E0C131D807D1F776
:10FA50001FEF8FEFEADF8EB587FF02C01150C9F7A5
:10FA6000DF91CF911F9108951F93CF93DF93660F7E
:10FA7000771F881F991F21E520930B0180930C01AC
:10FA800070930D0160930E0110920F0180E58CBD03
:10FA9000D1DF882341F41FEF8FEFC7DF8EB58E3F94
:10FAA00029F01150C9F72B9A83E010C0CDE1D2E0C4
:10FAB0008FEFBBDF8EB5899384E0CD31D807C1F7D6
:10FAC0008FEFB3DF8FEFB1DF2B9A80E0DF91CF9123
:10FAD0001F9108958F929F92AF92BF92CF92DF9223
:10FAE000EF92FF920F931F93CF93DF93A090190192
:10FAF000B0901A018DE1A81684E0B80608F45CC045
:10FB00000091110110911201E0901301F090140185
:10FB1000D0900201CD2CCA94CE20D6948D2DE70131
:10FB200003C0D695C79586958823D9F78FEF17C060
:10FB3000812E9924881551F0609100017091010186
:10FB4000680D711D80E090E08FDF882DF801F07066
:10FB5000EE0FFF1FE35EFD4F00811181219720977B
:10FB600039F70250104020E030E005C0000F111FAF
:10FB7000221F331FD694DD20C9F7609107017091D1
:10FB800008018091090190910A016C0D711D811D80
:10FB9000911D600F711F821F931F66DF0894E11C87
:10FBA000F11CF0921401E0921301C50180509240C3
:10FBB00090931A018093190180911501909116017B
:10FBC000A0911701B09118010197A109B109809383
:10FBD000150190931601A0931701B0931801E091BD
:10FBE0001901F0911A018191F0931A01E093190122
:10FBF000DF91CF911F910F91FF90EF90DF90CF9009
:10FC0000BF90AF909F908F900895813614F08755E4
:10FC10000895813414F08753089580330CF0805395
:10FC200008951F9357DFF1DF182F54DFEEDF129591
:10FC3000107F810F1F910895DF92EF92FF920F9333
:10FC40001F93CF93DF9385E580931D0180E580931B
:10FC50001E0184E480931F01109220012A9A84B12E
:10FC60008C6284B9239A83E58CBD0AE08FEFDDDED8
:10FC70000150E1F780E480930B0110920C01109287
:10FC80000D0110920E0110920F0185E98093100171
:10FC900000E1D0DE182F2B9A8FEFC7DE113009F468
:10FCA00036C10150B1F737C12B9A8FEFBEDEC2DEED
:10FCB0008823D1F718C180915702863329F4109216
:10FCC00001011092000117C06091E3037091E403F9
:10FCD0008091E5039091E603709301016093000128
:10FCE000C3DE80915302863409F015C1809157021A
:10FCF000863309F010C180912A028093020180911D
:10FD00002B0290912C022091000130910101820F71
:10FD1000931F909301018093000160912D0270E088
:10FD20004091330250913402649F9001659F300DE1
:10FD3000749F300D1124280F391F30930401209334
:10FD4000030180912E0290912F0214E096958795E1
:10FD50001A95E1F79093060180930501820F931F96
:10FD6000A0E0B0E08093070190930801A0930901FF
:10FD7000B0930A01C0E0D0E00DE114E0CE01B4E0A0
:10FD800096958795BA95E1F7209105013091060186
:10FD90008217930708F0A0C06091030170910401DD
:10FDA000680F791F80E090E05FDECE018F70E82F52
:10FDB000F0E0A5E0EE0FFF1FAA95E1F7E35EFD4F2F
:10FDC0008081882309F488C0828D938D009709F47F
:10FDD00083C09093120180931101848D958DA68D1F
:10FDE000B78D8093150190931601A0931701B093DE
:10FDF0001801109214011092130110931A0100932C
:10FE0000190151E040E00FC030E08E0F9F1FDC0170
:10FE10008C91992787FD909561E02817390709F0A3
:10FE200060E056234F5F842F90E0DC01A35EBE4F5D
:10FE30002C91222349F7452309F44EC0818585344E
:10FE400009F04AC08085883409F046C0828588352B
:10FE500009F042C052C0DD20D1F0E3DEF70181930A
:10FE60007F01DA94FDE1EF16F2E0FF0611F59ADD6D
:10FE700020911B0130911C0120503F4F30931C01F9
:10FE800020931B01FDE1EF2EF1E0FF2E12C022DED8
:10FE90008A3379F4C6DED82E2091190130911A01E7
:10FEA0002C5F3F4F30931A0120931901BADE88234B
:10FEB00069F420911501309116014091170150917C
:10FEC0001801211531054105510529F68DE1E81686
:10FED00081E0F80609F066DD219692E0C030D9078E
:10FEE00009F04CCF18C060E070E0CB01BDDD80911F
:10FEF0005302863409F0E8CEDECE10921C01109237
:10FF00001B01EDE1EE2EE1E0FE2EDD24D2CF81E4F7
:10FF100080930B01CCCEDF91CF911F910F91FF9079
:10FF2000EF90DF9008959091C00095FFFCCF8093F3
:10FF3000C60008958091C00087FFFCCF8091C0006B
:10FF400084FD01C0A8958091C6000895E0E6F0E028
:10FF500098E1908380830895EDDF803219F088E086
:10FF6000F5DFFFCF84E1DFCF1F93182FE3DF1150C0
:10FF7000E9F7F2DF1F91089580E0E8DFEE27FF2721
:02FF80000994E2
:040000031000F800F1
:00000001FF
